{
  "_format": "hh-sol-artifact-1",
  "contractName": "Transactions",
  "sourceName": "contracts/Transactions.sol",
  "abi": [
    {
      "anonymous": false,
      "inputs": [
        {
          "indexed": false,
          "internalType": "address",
          "name": "sender",
          "type": "address"
        },
        {
          "indexed": false,
          "internalType": "address",
          "name": "reciever",
          "type": "address"
        },
        {
          "indexed": false,
          "internalType": "uint256",
          "name": "amount",
          "type": "uint256"
        },
        {
          "indexed": false,
          "internalType": "string",
          "name": "message",
          "type": "string"
        },
        {
          "indexed": false,
          "internalType": "string",
          "name": "keyword",
          "type": "string"
        }
      ],
      "name": "TransactionAdded",
      "type": "event"
    },
    {
      "inputs": [
        {
          "internalType": "address payable",
          "name": "_reciever",
          "type": "address"
        },
        {
          "internalType": "string",
          "name": "message",
          "type": "string"
        },
        {
          "internalType": "string",
          "name": "keyword",
          "type": "string"
        }
      ],
      "name": "addTransaction",
      "outputs": [],
      "stateMutability": "payable",
      "type": "function"
    },
    {
      "inputs": [],
      "name": "getTransactionHistory",
      "outputs": [
        {
          "components": [
            {
              "internalType": "address",
              "name": "sender",
              "type": "address"
            },
            {
              "internalType": "address",
              "name": "reciever",
              "type": "address"
            },
            {
              "internalType": "uint256",
              "name": "amount",
              "type": "uint256"
            },
            {
              "internalType": "string",
              "name": "message",
              "type": "string"
            },
            {
              "internalType": "string",
              "name": "keyword",
              "type": "string"
            }
          ],
          "internalType": "struct Transactions.Transcation[]",
          "name": "",
          "type": "tuple[]"
        }
      ],
      "stateMutability": "view",
      "type": "function"
    }
  ],
  "bytecode": "0x608060405234801561001057600080fd5b50610b11806100206000396000f3fe6080604052600436106100295760003560e01c80634becff441461002e578063b76d4fc31461004a575b600080fd5b610048600480360381019061004391906105ab565b610075565b005b34801561005657600080fd5b5061005f610252565b60405161006c919061084e565b60405180910390f35b8273ffffffffffffffffffffffffffffffffffffffff166108fc349081150290604051600060405180830381858888f193505050501580156100bb573d6000803e3d6000fd5b5060006040518060a001604052803373ffffffffffffffffffffffffffffffffffffffff1681526020018573ffffffffffffffffffffffffffffffffffffffff16815260200134815260200184815260200183815250908060018154018082558091505060019003906000526020600020906005020160009091909190915060008201518160000160006101000a81548173ffffffffffffffffffffffffffffffffffffffff021916908373ffffffffffffffffffffffffffffffffffffffff16021790555060208201518160010160006101000a81548173ffffffffffffffffffffffffffffffffffffffff021916908373ffffffffffffffffffffffffffffffffffffffff1602179055506040820151816002015560608201518160030190805190602001906101ee92919061048b565b50608082015181600401908051906020019061020b92919061048b565b5050507f75bdbdde70eb774e2eafcece658f59a113ee792cb9aff22a357d06d7dfb7602933843485856040516102459594939291906107ed565b60405180910390a1505050565b60606000805480602002602001604051908101604052809291908181526020016000905b8282101561048257838290600052602060002090600502016040518060a00160405290816000820160009054906101000a900473ffffffffffffffffffffffffffffffffffffffff1673ffffffffffffffffffffffffffffffffffffffff1673ffffffffffffffffffffffffffffffffffffffff1681526020016001820160009054906101000a900473ffffffffffffffffffffffffffffffffffffffff1673ffffffffffffffffffffffffffffffffffffffff1673ffffffffffffffffffffffffffffffffffffffff1681526020016002820154815260200160038201805461035f906109f2565b80601f016020809104026020016040519081016040528092919081815260200182805461038b906109f2565b80156103d85780601f106103ad576101008083540402835291602001916103d8565b820191906000526020600020905b8154815290600101906020018083116103bb57829003601f168201915b505050505081526020016004820180546103f1906109f2565b80601f016020809104026020016040519081016040528092919081815260200182805461041d906109f2565b801561046a5780601f1061043f5761010080835404028352916020019161046a565b820191906000526020600020905b81548152906001019060200180831161044d57829003601f168201915b50505050508152505081526020019060010190610276565b50505050905090565b828054610497906109f2565b90600052602060002090601f0160209004810192826104b95760008555610500565b82601f106104d257805160ff1916838001178555610500565b82800160010185558215610500579182015b828111156104ff5782518255916020019190600101906104e4565b5b50905061050d9190610511565b5090565b5b8082111561052a576000816000905550600101610512565b5090565b600061054161053c84610895565b610870565b90508281526020810184848401111561055957600080fd5b6105648482856109b0565b509392505050565b60008135905061057b81610ac4565b92915050565b600082601f83011261059257600080fd5b81356105a284826020860161052e565b91505092915050565b6000806000606084860312156105c057600080fd5b60006105ce8682870161056c565b935050602084013567ffffffffffffffff8111156105eb57600080fd5b6105f786828701610581565b925050604084013567ffffffffffffffff81111561061457600080fd5b61062086828701610581565b9150509250925092565b60006106368383610752565b905092915050565b6106478161097a565b82525050565b6106568161092c565b82525050565b6106658161092c565b82525050565b6000610676826108d6565b61068081856108f9565b935083602082028501610692856108c6565b8060005b858110156106ce57848403895281516106af858261062a565b94506106ba836108ec565b925060208a01995050600181019050610696565b50829750879550505050505092915050565b60006106eb826108e1565b6106f5818561090a565b93506107058185602086016109bf565b61070e81610ab3565b840191505092915050565b6000610724826108e1565b61072e818561091b565b935061073e8185602086016109bf565b61074781610ab3565b840191505092915050565b600060a08301600083015161076a600086018261064d565b50602083015161077d602086018261064d565b50604083015161079060408601826107cf565b50606083015184820360608601526107a882826106e0565b915050608083015184820360808601526107c282826106e0565b9150508091505092915050565b6107d881610970565b82525050565b6107e781610970565b82525050565b600060a082019050610802600083018861065c565b61080f602083018761063e565b61081c60408301866107de565b818103606083015261082e8185610719565b905081810360808301526108428184610719565b90509695505050505050565b60006020820190508181036000830152610868818461066b565b905092915050565b600061087a61088b565b90506108868282610a24565b919050565b6000604051905090565b600067ffffffffffffffff8211156108b0576108af610a84565b5b6108b982610ab3565b9050602081019050919050565b6000819050602082019050919050565b600081519050919050565b600081519050919050565b6000602082019050919050565b600082825260208201905092915050565b600082825260208201905092915050565b600082825260208201905092915050565b600061093782610950565b9050919050565b600061094982610950565b9050919050565b600073ffffffffffffffffffffffffffffffffffffffff82169050919050565b6000819050919050565b60006109858261098c565b9050919050565b60006109978261099e565b9050919050565b60006109a982610950565b9050919050565b82818337600083830152505050565b60005b838110156109dd5780820151818401526020810190506109c2565b838111156109ec576000848401525b50505050565b60006002820490506001821680610a0a57607f821691505b60208210811415610a1e57610a1d610a55565b5b50919050565b610a2d82610ab3565b810181811067ffffffffffffffff82111715610a4c57610a4b610a84565b5b80604052505050565b7f4e487b7100000000000000000000000000000000000000000000000000000000600052602260045260246000fd5b7f4e487b7100000000000000000000000000000000000000000000000000000000600052604160045260246000fd5b6000601f19601f8301169050919050565b610acd8161093e565b8114610ad857600080fd5b5056fea2646970667358221220f4f5f68013ffb6a8cdcc5ac5e4c79e8a0dc4cb5c703b273751b53d1e054c138164736f6c63430008040033",
  "linkReferences": {},
  "deployedLinkReferences": {}
}